:020000040800F2
:10000000C807002089010008652000085D2000085D
:10001000612000087103000815210008000000009D
:100020000000000000000000000000006D2000083B
:10003000810300080000000069200008712000080A
:10004000A3010008A3010008A3010008A301000800
:10005000A3010008A3010008A3010008A3010008F0
:10006000A301000885030008C90300087503000800
:10007000A3010008A3010008A3010008A3010008D0
:10008000A3010008A3010008A3010008A3010008C0
:10009000A3010008A3010008A30100080D04000843
:1000A000A3010008A3010008A3010008A3010008A0
:1000B000A3010008A301000809210008A30100080A
:1000C000A3010008A3010008A3010008A301000880
:1000D000A3010008A3010008A3010008A301000870
:1000E000A3010008A3010008A301000800F002F822
:1000F00000F03AF80AA090E8000C82448344AAF188
:100100000107DA4501D100F02FF8AFF2090EBAE885
:100110000F0013F0010F18BFFB1A43F0010318473B
:10012000A0290000C0290000103A24BF78C878C177
:10013000FAD8520724BF30C830C144BF04680C60ED
:10014000704700000023002400250026103A28BF35
:1001500078C1FBD8520728BF30C148BF0B60704739
:100160001FB51FBD10B510BD00F031F81146FFF7E7
:10017000F7FF01F0E7FF00F04FF803B4FFF7F2FFDD
:1001800003BC00F057F800000948804709480047C1
:10019000FEE7FEE7FEE7FEE7FEE7FEE7FEE7FEE737
:1001A000FEE7FEE704480549054A064B7047000094
:1001B00005210008ED000008C8010020C807002044
:1001C000C8030020C8030020704770477047754679
:1001D00000F02CF8AE4605006946534620F00700B3
:1001E000854618B020B5FFF7DDFFBDE820404FF091
:1001F00000064FF000074FF000084FF0000BAC4630
:10020000ACE8C009ACE8C009ACE8C009ACE8C0097A
:1002100021F007018D46704710B50446AFF300800A
:100220002046BDE81040FFF7A8BF00000048704717
:100230001800002001491820ABBEFEE7260002008E
:10024000704700000146406A826A12F0500F03D0E6
:10025000006A026B084610470168826A42F4007225
:100260008262896801F46021B1F5602F01D1017BC0
:1002700011B100F0E7B900BF816A21F48071816299
:10028000816AC90448BF00F0DDB9816A41F001010B
:10029000816200F0D7B90000406A816A41F04001F4
:1002A0008162C16A41F00401C16200F0CFB900006F
:1002B000406A00F0C9B90000B0B582B00446002021
:1002C000019021688A68D2074FD1886840F0010008
:1002D000886040F21000C2F2000000684DF68361B1
:1002E000C4F21B31A0FB0101880C01900198A0B160
:1002F000019801380190019878B101980138019076
:10030000019850B1019801380190019828B10198E5
:100310000138019001980028EAD100F087FF216898
:100320008968C9071CD1054603E000BF8068C00783
:100330001AD100F07BFF411B20680329F6D38168A6
:10034000C907F3D1A06A40F01000A062E06A40F053
:100350000100E062002084F82400012002B0B0BD5A
:10036000002002B0B0BD00BF002002B0B0BD000050
:10037000FEE7000040F23810C2F2000000F0C8BCF6
:1003800070470000B0B540F60004C4F201042046F6
:10039000082100F045FF05462046082100F040FFF7
:1003A0002DB101280BD12046082100F039FFB0FA09
:1003B00080F040F284014009C2F200010870082078
:1003C000BDE8B04000F012BEB0B540F60004C4F283
:1003D00001042046102100F023FF0546204610218D
:1003E00000F01EFF2DB101280BD12046102100F096
:1003F00017FFB0FA80F040F284014009C2F2000118
:1004000048701020BDE8B04000F0F0BDB0B540F637
:100410000004C4F201042046202100F001FFD8B1FD
:100420002046402100F0FCFEB0B12046802100F0C3
:10043000F7FE88B12046202100F0F2FE01280BD003
:100440002046402100F0ECFE012805D02046802106
:1004500000F0E6FE01281BD12046202100F0E0FE3E
:10046000B0FA80F040F284054009C2F20005A8709D
:100470002046402100F0D4FEB0FA80F04009E87038
:100480002046802100F0CCFEB0FA80F040092871AF
:10049000202000F0ABFD402000F0A8FD8020BDE84A
:1004A000B04000F0A3BD0000EFF3108072B600F082
:1004B0007BFF00BFFEE7000010B581B00022009274
:1004C00090F82420012A03D10221084601B010BD72
:1004D0004B680122062B80F8242017D8D0F800C0E2
:1004E00003EB83035A1F1F23DCF834E003FA02F402
:1004F0000B682EEA040403FA02F22243CCF83420FB
:10050000092B03EB430219D936E000BFD0F800C035
:100510000C2B03EB83021DD8233A1F23DCF830E0B9
:1005200003FA02F40B682EEA040403FA02F22243EF
:10053000CCF83020092B03EB43021DD8DCF8103037
:10054000072489689440A34391401943CCF81010C4
:10055000002130E0413A1F23DCF82CE003FA02F4DA
:100560000B682EEA040403FA02F22243CCF82C2092
:10057000092B03EB4302E1D9DCF80CE01E3A072417
:10058000896894402EEA0404914023F0010221433B
:10059000102ACCF80C100DD142F20841C4F201012E
:1005A000A1F1080294450DD0816A41F020018162D9
:1005B000012100E00021002280F82420084601B03B
:1005C00010BD00BF0A68120230D40A68102B42F432
:1005D00000020A602CD140F21001C2F20001096849
:1005E0004DF68362C4F21B32A1FB0212910C01EBA7
:1005F0008101490000910099E1B100990139009110
:100600000099C9B10099013900910099B1B10099DF
:1006100001390091009999B100990139009100992F
:1006200000294FF00001E8D1C5E700BF0021C2E773
:100630000021C0E70021BEE70021BCE70021BAE7A6
:100640000021B8E7704700007047000070470000C5
:10065000B0B5002800F0A8800446806A20B1216867
:100660008868C0070BD114E00020E06284F8240001
:10067000204600F09BF821688868C00709D0886888
:1006800020F00100886000F0D1FD21688A68D2075F
:1006900026D1A06AC0063AD4A06A41F20212904361
:1006A0000230A062E069D4E9013240EA030C531E33
:1006B000B3FA83F35D091346B2F5807F18BF2B02AE
:1006C000207D257B01284CEA450030D135B3A56A51
:1006D00045F02005A562E56A45F00105E56226E0E2
:1006E000054602E08868C007D3D000F09FFD401B9C
:1006F00021680328F6D38868C007F3D0A06A40F0C9
:100700001000A062E06A40F00100E062A06AA06A06
:1007100040F01000A0620120B0BD00BFD4F818C0A6
:100720004EF60005CFF6FF7505EB4C352B434D68B3
:10073000B2F5807F25F4694543EA05034B608B6879
:100740004FF2FD75CFF6E17503EA050343EA0003B6
:100750008B6001D0012A07D122690023CFF6F07304
:1007600003EB025201E000BF0022CB6A23F47003C6
:100770001A43CA62896840F6FE62CFF61F721140C2
:10078000814207D10020E062A16A012262F30101E7
:10079000A162B0BDA06A40F0100020F00200A0628B
:1007A000E06A40F00100E0620120B0BD70B586B0A3
:1007B000044640F60000C4F20100216800F5E05252
:1007C000002691420596049602D006B070BD00BF87
:1007D00041F21801C4F202010A6842F400720A6090
:1007E0000A6802F400720192019A0A6842F0040257
:1007F0000A60096801F00401019101990621029142
:100800000321039102A900F0FDFB40F238150820F6
:10081000C2F20005C4F202004FF40072C5E90006FE
:1008200005F1100080214FF400634FF0200C4FF4CD
:10083000005E80E80C502846C5E9026100F036FBF6
:10084000002818BFFFF730FE25626C6206B070BD4D
:1008500070B515460446006842F60002C4F2010273
:1008600090420E4605D042F20041C4F20101884296
:1008700009D142F20440C4F20100006810F4702F64
:100880001CBF012070BD94F82400012804BF022081
:1008900070BD012084F824002046FFF70DFD18B13B
:1008A000002184F8241070BD42F204402168A26A3D
:1008B000C4F2010040F601739A4300F57F7302F51C
:1008C00080729942A26243D0A06A20F48010A06294
:1008D0004868400504D5A06A012262F30D30A06289
:1008E000A26A0020D2044FF0000244BFE26A22F064
:1008F0000602E26284F82400206A40F24522C0F633
:10090000000240F2B12340F2992C00F1280EC0F60B
:100910000003C0F6000C8EE80C106FF002020A60B3
:100920008A682B4642F480728A604C31324600F06D
:10093000F9FA2068816801F460228168B2F5602FBD
:100940000CBF41F4A00141F480118160002070BD12
:10095000026812F4702FB7D0A26A42F48012A26229
:1009600000684005BCD5B6E790F82020013A012A7E
:1009700008D8006800F114020020136819431160C0
:10098000704700BF00F1240201204FF4802113685A
:10099000194311607047000010B590F820E0D0F8BE
:1009A00000C0AEF1010EBEF1010FDCF808E011D875
:1009B0001EF0E05F18D0CEF3016EBEF1030F1DD123
:1009C00000F1240101204FF400020B681A430A6071
:1009D00010BD00BF00F1240101204FF480220B68FC
:1009E0001A430A6010BD00BF00F1240101204FF43A
:1009F00000120B681A430A6010BD00BF012000FA04
:100A00000EF01860886828B14B68CC6844EAC303CC
:100A1000034303E00868CB6843EA40530CEB0E1035
:100A2000C0F880310B69C0F88431097D012905D1F6
:100A300000F5C2710B6843F480730B605168C0F815
:100A40008C11126800F5C071C0F8882100200122C5
:100A50000B681A430A6010BDB0B5026890F82030E8
:100A6000013B012B28D8D2F80002012340F00100FD
:100A7000C2F80002D1F814E0CC690EF01F0003FAAE
:100A800000F0D2F81C326FEA000C8343012CC2F84C
:100A90001C3217D06CBBD2F80C3203EA0C03C2F83C
:100AA0000C32CB688C8844EA034302EBCE04C4F8D2
:100AB00040320B4615E000BF416A41F4802141629B
:100AC0000120B0BDD2F80C320343C2F80C320B68DF
:100AD0008C8844EA034302EBCE04C4F8403201F1AF
:100AE0000C038C681B8843EA044302EBCE04C4F871
:100AF0004432D2F804328D6943EA0004D1F810E0A0
:100B0000096A002D08BF03EA0C04C2F80442D2F8B7
:100B10001432BEF1000F43EA000408BF03EA0C04DC
:100B20000129C2F8144204D1D2F81C120843C2F8B9
:100B30001C02D2F8000220F00100C2F800020020DE
:100B4000B0BD0000B0B5C8B1044690F8200010B99F
:100B5000204600F071F82068016841F00101016051
:100B600000F064FB054600BF20684168C90707D153
:100B700000F05CFB401B0B28F6D312E00120B0BD57
:100B8000016821F00201016000F050FB054600BF42
:100B90002068416889070DD500F048FB401B0B28F1
:100BA000F6D3606A052140F400306062012084F8C9
:100BB0002010B0BD217E0268012922F0800208BF0A
:100BC00080320260617E0268012922F0400208BF83
:100BD00040320260A17E0268012922F0200208BF93
:100BE00020320260E17E0268012922F0100218BF63
:100BF00010320260217F0268012922F0080208BF3A
:100C000008320260617F0268012922F0040208BFF5
:100C100004320260D4E901C2D4E9033561691A43A0
:100C20002A431143ACF101021143C16100200121AB
:100C3000606284F82010B0BDB0B586B040F6000404
:100C4000C4F201040068A4F52442002190420591F9
:100C500002D006B0B0BD00BF41F21800C4F20200DD
:100C6000426802AD42F000724260426802F00072D7
:100C70000192019A026842F004020260006800F0EA
:100C80000400019001984FF40060CDE90201049145
:100C90002046294600F0B6F94FF480500290022019
:100CA0000390032005902046294600F0ABF906B0DA
:100CB000B0BD0000B0B5044690F8200001281DD159
:100CC000022084F820002068016821F00101016001
:100CD00000F0ACFA054600BF20684068C00713D09A
:100CE00000F0A4FA401B0B28F6D3606A40F40030F1
:100CF0006062052084F820000120B0BD606A40F4E5
:100D0000002060620120B0BD00206062B0BD000024
:100D100010B5D0E90FCE0168DCF800300A6823FA7C
:100D20000EF35C072AD512F0040427D00A68920655
:100D300003D40A6822F004020A602F22C4F20202DD
:100D4000914240F20402C4F2020259DD3023C4F29F
:100D50000203994270D04423C4F20203994271D035
:100D60005823C4F20203994278D14FF480231360D0
:100D7000C16A002940F097806EE000BF9C0727D52C
:100D800012F0020424D00A68920606D40A6822F0FF
:100D90000A020A60012280F821202F22C4F20202F6
:100DA000914240F20402C4F2020239DD3023C4F25F
:100DB000020399425ED04423C4F2020399425DD0FB
:100DC0005823C4F2020399425ED14FF4003363E02A
:100DD0001B0741D512F0080208BF10BD0A6822F0B7
:100DE0000E020A60012101FA0EF2CCF804208163A0
:100DF000016B4FF480720029028454D12CE000BFB3
:100E00000823C4F20203994222D01C23C4F2020335
:100E1000994223D140231360C16A002943D11BE0CA
:100E20000823C4F2020399422CD01C23C4F202030B
:100E3000994229D120232FE04FF480631360C16AC7
:100E400089BB09E04FF480431360C16A59BB03E0DA
:100E500004231360C16A31BB10BD00BF02F16804F6
:100E60004FF08063A14208BF4FF480031360C16A52
:100E7000C9B9F1E74FF400730EE000BF4FF400531F
:100E80000AE000BF022307E002F168044FF000739C
:100E9000A14208BF4FF400131360816A00220029A9
:100EA00080F82020D8D0BDE810400847002804BFB3
:100EB000012070472DE9F04101684FF6F872CBF63A
:100EC000FD724CF6CD430A44CCF6CC43A2FB03237F
:100ED0006FF0030707EA93030027C4F2020700F14B
:100EE000040E00F11008C0E90F739EE8045098E862
:100EF00070010B6843F6F077BB431A4342EA0C02D9
:100F000042EA0E0222432A43324342EA08020A60BE
:100F100000214FF4807281630284BDE8F0410846ED
:100F200070470000F0B590F820C0BCF1010F32D03E
:100F300090F821C04FF0010EBCF1010F80F820E0C5
:100F400026D14FF0020C80F821C04FF0000CC0F801
:100F500038C0D0E900C4C56AC66BDCF80070102C3C
:100F600027F00107CCF80070006C0EFA00F07060FA
:100F70000846CCF8043004BF10460A46CCF80800F6
:100F8000CCF80C20DCF8000045B140F00E000DE07C
:100F9000002180F820100220F0BD00BF20F00400E6
:100FA000CCF80000DCF8000040F00A00CCF80000AB
:100FB000DCF8000040F00100CCF800000020F0BD9B
:100FC000B0B5044600F032F9054640F20800C2F21E
:100FD00000000078611C18BF044400BF00F026F92F
:100FE000401BA042FAD3B0BD7047000040F214414C
:100FF000C4F201010A68024214BF08607047FFF79B
:10100000F3BF00002DE9F04F82B00E68002E00F013
:10101000038140F20C4C41F200424FF6FF7EC4F2D5
:10102000010CC4F20102042700240123C1F2100EB6
:101030004FF0000A4FF00009904208BF03270097C5
:1010400045E000BF012704F00C030F229A402BEA71
:10105000020207FA03F34FEA9A051A4346F82520DD
:10106000D1F804B040F20045C4F201055FEACB328A
:101070002A6854BF22EA080242EA08022A606A6823
:101080005FEA8B3354BF22EA080242EA08026A6030
:101090005FEACB23AA6854BF22EA080242EA0802A8
:1010A0005FEA8B23AA60DCF800204FF0010354BFF5
:1010B00022EA080242EA0802CCF800200E680AF18F
:1010C000010A36FA0AF204F1040400F0A58003FADA
:1010D0000AF816EA080FF1D04E68764512DC122E97
:1010E00056D8DFE806F0350B454955555555555549
:1010F000555555555555554D510000BFD1F80C90DB
:1011000046E000BF4FF6FF72C1F2210296420FDCAB
:101110000022C1F2110296421AD00022C1F212023C
:10112000964215D00022C1F22102964210D02FE043
:101130000022C1F2220296420AD00022C1F23102FC
:10114000964205D00022C1F23202964220D100BF61
:101150008A684AB1012A14BFC0F81480C0F8108010
:101160004FF0080914E000BF4FF0040910E000BF81
:10117000CA6802F108090BE04FF0000908E000BF5F
:10118000CA6802F1040903E0CA6802F10C0900BF51
:1011900022460646BAF1080F24BF203A04363768C3
:1011A0000F25954027EA050509FA02F22A43326025
:1011B000CA79D2067FF582AF41F21803C4F2020366
:1011C0001A6842F001021A601A6802F001020192E4
:1011D000019A40F20042C4F20102A2F57E762AF0A2
:1011E000030256F802B040F60002C4F20102904237
:1011F00010D040F60042C4F2010290423FF422AF08
:1012000041F20002C4F20102009F904208BF02278F
:1012100019E700BF002716E702B0BDE8F08F000015
:101220008068084018BF01207047000040F2C410D9
:10123000C2F200000068704740F2080040F2C4119A
:10124000C2F20000C2F2000100780A68104408608F
:101250007047000080B542F20000C4F2020001684D
:1012600041F010010160032000F08EF80F2000F023
:1012700005F800F027F8002080BD000070B540F2AE
:101280000806C2F2000640F210013278C2F20001F4
:101290004FF47A730968B3FBF2F20446B1FBF2F142
:1012A000084600F0C3FB0F2C4FF0010508D838B9F1
:1012B0004FF0FF3021460022002500F039F874601D
:1012C000284670BD82B041F21800C4F202000168E5
:1012D000022241F001010160016801F00101019168
:1012E0000199416841F080514160406800F08050B0
:1012F000009000980420C4F20100016862F31A61B2
:10130000016002B070470000002848BF7047C1B2BA
:1013100000F01F00012202FA00F04EF20012CEF29D
:10132000000242EAD10121F0030108607047000089
:1013300010B54EF60C5CCEF2000CDCF80030C3F3B6
:10134000022E8EF00704042C28BF0424BEF10303F0
:101350004FF0FF3E0EFA04F438BF0023A14399403A
:101360000EFA03F39A43114300F00F0200F16043B9
:101370000901043A03F564436244002848BF02F1BE
:101380000C03197010BD00004EF60C51CEF2000196
:101390000A684FF6FF031A4060F30A2242F08060A9
:1013A00040F0FD700860704700F0B6FE2DE9F04196
:1013B00082B00446007841F21C06C007C4F202065F
:1013C0004AD0306810F0805808D1306840F0805022
:1013D0003060306800F080500190019847F20007BB
:1013E000C4F200073868C00512D4386840F4807031
:1013F0003860FFF71BFF05463868C00508D4FFF7C3
:1014000015FF401B6428F7D9032002B0BDE8F08126
:10141000706810F4407012D0616801F44071884225
:101420000DD0706840F24042C4F24222012320F401
:10143000407113600023C007136071602AD1706887
:10144000616820F440700843B8F1000F706003D168
:10145000306820F0805030602068810707D556F84A
:10146000181CA26821F44041114346F8181CC0061C
:1014700004D4002002B0BDE8F08100BF56F8180C7B
:10148000E16820F48000084346F8180C002002B000
:10149000BDE8F081FFF7CAFE054641F2883700BF7C
:1014A00070688007CBD4FFF7C1FE401BB8424FF0F5
:1014B0000300F5D9EBE700002DE9F04381B00028E7
:1014C00000F0858042F20008C4F202080446D8F811
:1014D00000000D4600F0070088420CD2D8F800004A
:1014E00020F007002843C8F80000D8F8000000F0FA
:1014F0000700A8426BD1206841F204098107C4F2B9
:10150000020917D5410705D5D9F8001041F4E0616B
:10151000C9F80010010705D5D9F8001041F4605151
:10152000C9F80010D9F80010A26821F0F0011143A9
:10153000C9F80010C00741D1D8F8000000F007003A
:10154000A8420CD9D8F8000020F007002843C8F8BA
:101550000000D8F8000000F00700A84237D120684A
:10156000410707D5D9F80010E26821F4E061114382
:10157000C9F80010000708D5D9F80000216920F447
:10158000605040EAC100C9F80000D9F8002002F01C
:101590000C00082841F20020C0F27A0050D142F637
:1015A000B023C2F38341C0F60003595CD2033BD49D
:1015B00040F60010C0F23D00484341E06068022858
:1015C0000AD001282AD159F8041C890308D4012023
:1015D00001B0BDE8F08300BF59F8041C8901F6D5BD
:1015E000D9F8001021F003010843C9F80000FFF703
:1015F0001DFE064641F28837D9F80000616800F008
:101600000C00B0EB810F97D0FFF710FE801BB842A3
:10161000F2D9032001B0BDE8F08300BF59F8041CE3
:101620008907D4D5DCE700BFD9F8002042F69E2315
:10163000C2F34042C0F600039A5C4843B0FBF2F0AC
:10164000D9F8001042F6A022C1F30311C0F600023F
:10165000515C40F2100220FA01F140F20C00C2F29B
:1016600000000068C2F200021160FFF707FE0020D0
:1016700001B0BDE8F08300002DE9F04182B0002800
:1016800068D00446007841F20006C007C4F20206A2
:1016900025D0706800F00C0004281BD0706800F0A2
:1016A0000C00082802D17068C00313D460680028B9
:1016B00000F06881B0F5A02F00F07C81B0F5803F8C
:1016C00000F07C81306820F480303060306820F495
:1016D000802076E13068800301D56068D0B320783F
:1016E000800718D5706810F00C0F07D0706800F0F4
:1016F0000C0008286ED17068C0036BD43068800776
:1017000002D52069012825D13068616920F0F800F0
:1017100040EAC1003060207800071FD420784007DD
:1017200032D4E56995B1706800F00C00082840F0EB
:101730008F80012D0ED07068216A00F480328A42B9
:1017400008D1616A00F47010884203D1002002B011
:10175000BDE8F081012002B0BDE8F081A069002859
:1017600062D00020C4F242200121C0F88014FFF7AB
:101770005DFD0546706A800700F18C80FFF756FD1D
:10178000401B0228F6D92AE1F06910F0805808D1F0
:10179000F06940F08050F061F06900F080500090F6
:1017A000009847F20007C4F200073868C00529D442
:1017B000386840F480703860FFF738FD054600BF98
:1017C0003868C0051ED4FFF731FD401B6428F7D9E7
:1017D00005E100BF2069002840F20000C4F2422069
:1017E00000F0828001210160FFF720FD054600BF67
:1017F000306880073FF588AFFFF718FD401B0228CF
:10180000F6D9ECE0E068002800F08080052800F0C0
:101810009780012800F09880306A20F00100306243
:10182000306A20F0040092E00020C4F2422000213F
:10183000C0F88014FFF7FAFC054600BF706A800705
:101840007FF56CAFFFF7F2FC401B0228F6D9C6E02B
:101850000027C4F2422700203866FFF7E7FC022D7C
:1018600005460BD13068800140F1BE80FFF7DEFCF9
:10187000401B02284FF00300F4D968E7306880016C
:101880007FF564AFFFF7D2FC401B02284FF0030046
:10189000F4D95CE740F21000C2F20000006844F6A0
:1018A000D351C1F26201A0FB0101480A019000BFBF
:1018B00000BF0198411E002801913FF42FAF00BFE7
:1018C0000198411E002801913FF428AF00BF019804
:1018D000411E002801913FF421AF00BF0198411E35
:1018E00000280191E4D119E700210160FFF79EFC77
:1018F000054600BF306880077FF50DAFFFF796FC07
:10190000401B02284FF00300F4D920E7306A20F092
:1019100001003062306A20F004003062FFF786FC7C
:10192000054641F2883700BF306A800720D5FFF7AF
:101930007DFC401BB8424FF00300F5D907E700BF1C
:10194000306A40F004003062306A40F001003062DA
:10195000FFF76CFC054641F2883700BF306A80070C
:1019600006D4FFF763FC401BB842F7D937E000BF4D
:10197000B8F1000F7FF4D5AEF06920F08050F0612F
:10198000CFE600BF306820F480303060306820F44B
:1019900080203060FFF74AFC054600BF30688003B6
:1019A0007FF59DAEFFF742FC401B64284FF003001B
:1019B000F4D9CCE6306840F480203060306840F4E0
:1019C00080303060FFF732FC054600BF306880038E
:1019D0003FF585AEFFF72AFC401B6428F6D90320AB
:1019E00002B0BDE8F08100BF206AB0F5803F05D1AC
:1019F0007168A26821F40031114371607168626AF4
:101A000021F4741111430843706001203866FFF718
:101A10000DFC0446306880013FF598AEFFF706FCE8
:101A2000001B02284FF00300F4D990E6411E00206D
:101A3000B0EB116F1CBF012070474EF21002CEF2C6
:101A4000000251604EF62351CEF20001F0230B70DC
:101A500007219060116070477047000070470000D8
:101A600010B590F83C20012A4FF0020233D080F8E4
:101A70003D200268D2F804E0D2F808C00C682EF0CD
:101A80007003234340F2FF74C4F20004A242536087
:101A90000ADCB2F1804F13D040F20043C4F20003DD
:101AA0009A420DD011E000BF42F60043C4F2010398
:101AB0009A4205D040F60003C4F200039A4204D1D2
:101AC00049682CF08003194391600121002280F8BD
:101AD0003D1080F83C20104610BD0000002804BFD7
:101AE0000120704710B5044690F83D0028B9002049
:101AF00084F83C00204600F067F8022084F83D009E
:101B0000206840F2FF730268C4F2000342F6004C02
:101B10009842C4F2010C15DCB0F1804F1AD040F2AB
:101B20000041C4F20001884214D0984218DCB0F1A0
:101B3000804F1DD040F20041C4F20001884217D00E
:101B40001AE000BF604505D040F60001C4F2000174
:101B50008842EAD1A16822F070020A439842E6DD89
:101B6000604505D040F60001C4F20001884203D16F
:101B7000216922F440720A43A36922F08001D4F85B
:101B800004E0E268194360450160C262C0F828E0E1
:101B900002D16169CCF8301001214161002084F844
:101BA000461084F83E1084F83F1084F8401084F802
:101BB000411084F8421084F8431084F8441084F8EB
:101BC000451084F83D1010BD80B582B0006840F625
:101BD0000001C4F2000188421CBF02B080BD41F286
:101BE0001C00C4F202000168002241F004010160FF
:101BF0000068012100F00400019001981E20FFF709
:101C000097FB1E2002B0BDE88040FFF77DBB0000BF
:101C100090F83D1001291CBF01207047022180F877
:101C20003D10006840F2FF72C168C4F200029042A9
:101C300041F00101C16009DCB0F1804F12D040F2E7
:101C40000041C4F2000188420CD012E042F600418B
:101C5000C4F20101884205D040F60001C4F200013F
:101C6000884206D1816801F00701062904BF0020DF
:101C70007047016841F001010160002070470000D9
:101C800080B590F83C20012A4FF0020200F0BF809E
:101C900080F83D20D0F800C04FF67772DCF80830AD
:101CA00023EA0202CCF808200B683F2B1CDD5F2BD7
:101CB00020DD602B50D0B3F5005F6DD0702B40F06D
:101CC000A080D1E901E3C968DCF8082043EA0E03EB
:101CD00022F47F4243EA01211143CCF80810DCF8DA
:101CE000081041F077018AE01F2B29DC63B3102B29
:101CF0002AD086E0402B63D0502B40F08280D1F870
:101D000004E0C968DCF82030DCF8202022F0010271
:101D1000CCF82020DCF8182022F0F00242EA011171
:101D200023F00A0242EA0E02CCF81810CCF8202068
:101D3000DCF8081041F0570121F020015FE000BFFE
:101D4000202B01D0302B5CD1DCF8081021F0700181
:101D5000194341F0070152E0D1F804E0C968DCF80A
:101D6000203023F01003CCF82030DCF81830DCF8F9
:101D7000202023F4704322F0A00243EA013142EA1A
:101D80000E12CCF81810CCF82020DCF8081041F026
:101D9000670121F0100132E0D1E901E3C968DCF804
:101DA000082043EA0E0322F47F4243EA0121114353
:101DB000CCF80810DCF8081041F480411FE000BFA7
:101DC000D1F804E0C968DCF82030DCF8202022F0EB
:101DD0000102CCF82020DCF8182022F0F00242EAC0
:101DE000011123F00A0242EA0E02CCF81810CCF8D6
:101DF0002020DCF8081041F0470121F03001CCF838
:101E000008100121002280F83D1080F83C20104687
:101E100080BD00007047000010B5016804460869E5
:101E2000800744BFC8685FEA807039D408694007FA
:101E300044BFC8685FEA40703ED40869000744BFE9
:101E4000C8685FEA007045D40869C00644BFC86826
:101E50005FEAC0604AD40869C0071CBFC8685FEA6F
:101E6000C07051D10869000644BFC8685FEA0060CD
:101E700052D40869400644BFC8685FEA406053D442
:101E80000869800646BFC8685FEA806010BD6FF0D1
:101E9000200220460A61BDE81040FFF7DFBD00BF09
:101EA0006FF002000861012020778869800743D025
:101EB0002046FFF7AFFF45E06FF004000861022005
:101EC0002077886910F4407F40D02046FFF7A2FFBA
:101ED00042E000BF6FF00800086104202077C86965
:101EE00080073DD02046FFF795FF3FE06FF01000E0
:101EF000086108202077C86910F4407F3AD0204656
:101F0000FFF788FF3CE000BF6FF00100086120464A
:101F100000F03EF82168A5E76FF0800008612046D8
:101F2000FFF79AFD2168A4E76FF0400008612046A2
:101F300000F092F82168A3E7204600F025F820463B
:101F400000F024F82168002020776FE7204600F099
:101F50001BF8204600F01AF82168002020776CE773
:101F6000204600F011F8204600F010F8216800200B
:101F7000207769E7204600F007F8204600F006F8D1
:101F800021680020207766E7704700007047000056
:101F9000F0B581B040F2780540F20006C2F20005CB
:101FA000C2F200066F68B18804468F4248D3686A5F
:101FB00000F01CFD00F0EEFC44F6AD724FF68B33E2
:101FC000C2F23962CBF6C77300F0F8FA47F2B022DA
:101FD00045F6ED03C9F26812C4F2760300F016FA72
:101FE00000F0BCFAD5E907124CF2C103CCF2C003F1
:101FF000A1FB0317A2FB0312012101EB172301EB45
:102000001221E970A974297B2880287670882A46D5
:10201000E9742946AB7002F8113FD5F80D3041F84C
:10202000280F30786B610027A86305F1400005F1A7
:102030000803C5E90C7785F83C70FEF7ADFC6F60CE
:10204000206840F60001C4F20001884204BF781CF9
:10205000686001B0F0BD000070470000FEE70000BE
:10206000FEE70000FEE70000704700007047000038
:10207000FFF7E2B8B0B594B000240120CDE90F44D9
:10208000CDE90D440A900E904FF4E0104FF48031EA
:10209000022513900AA80494CDE90244CDE90B145B
:1020A000CDE91151FFF7E8FA30B1EFF3108072B6C5
:1020B000FFF77AF9FEE700BF0F20CDE905054FF4E1
:1020C0008060CDE9080405A802210794FFF7F4F920
:1020D00030B1EFF3108072B6FFF766F9FEE700BF8C
:1020E000022001904FF40040039001A8FFF75EF931
:1020F00030B1EFF3108072B6FFF756F9FEE700BF7C
:1021000014B0B0BD7047000040F27C10C2F2000075
:10211000FFF782BEFEE700004EF60C50BFF34F8F74
:10212000CEF200000168042201F4E061C0F2FA522C
:1021300011430160BFF34F8F00BF00BF00BF00BF5E
:10214000FAE7000086B041F2180640F60009C4F232
:102150000206C4F20009FFF77DF8FFF78BFF4FF48A
:102160007A70FEF72DFF00240594306802A940F034
:1021700010003060306800F0100000900098306867
:1021800040F020003060306800F02000009000989F
:10219000306840F004003060306800F004000090C7
:1021A0000098F82002900020C1F23100CDE903042C
:1021B00009F58030FEF726FF092000210022FFF7F5
:1021C000B7F80920FFF7A0F80A2000210022FFF746
:1021D000AFF80A20FFF798F8172000210022FFF738
:1021E000A7F81720FFF790F856F8040C002140F0EC
:1021F000010046F8040C56F8040C002200F001001F
:10220000029002980B20FFF793F80B20FFF77CF861
:1022100040F2E005C2F2000509F58E31284640F88B
:10222000281F4FF4807101274FF46022C0E901415B
:10223000032107730475C2610161FEF709FA38B121
:10224000EFF3108072B6FFF7AFF800BFFEE700BFF4
:10225000072005F12804049002A92046CDE9027761
:10226000FEF72AF930B1EFF3108072B6FFF79CF851
:10227000FEE700BF0220CDE9020002A92046FEF7DA
:102280001BF938B1EFF3108072B6FFF78DF800BF7D
:10229000FEE700BF102002900320039002A9204611
:1022A000FEF70AF930B1EFF3108072B6FFF77CF851
:1022B000FEE700BF706840F2780840F00070706080
:1022C0007068C2F2000800F000700290029809F5F0
:1022D000B841404640F8401F092100264FF44032E3
:1022E0004FF400134FF08077C0E90116C0E9036294
:1022F000C0E905378683FEF725FC38B1EFF310807F
:1023000072B6FFF751F800BFFEE700BF01204FF69D
:10231000FF71C5E90016C5E90216C5E90466C5E9FD
:102320000660C5E9080608F1400630462946FEF772
:1023300093FB38B1EFF3108072B6FFF735F800BFAA
:10234000FEE700BF3046FEF7B5FC38B1EFF3108072
:1023500072B6FFF729F800BFFEE700BF3046032141
:10236000FEF702FB30B1EFF3108072B6FFF71CF8F6
:10237000FEE700BF40F27C100021C2F200004823BB
:102380000591CDE90311CDE9001140F2E732C0E932
:10239000021301618021C0E900928161FFF79EFB79
:1023A00030B1EFF3108072B6FEF7FEFFFEE700BF1C
:1023B0004FF48050029040F27C10C2F2000002A95B
:1023C000FFF75EFC30B1EFF3108072B6FEF7ECFF62
:1023D000FEE700BF40F27C10C2F200006946FFF742
:1023E0003FFB28B1EFF3108072B6FEF7DDFFFEE78A
:1023F00040F27C10C2F20000FFF70AFC08F11C0159
:1024000020460322FEF724FAFEE7000010B591EA09
:10241000030F48BF83F0004300F1D681841A71EBAB
:10242000030C05D2121943EB0C03001B61EB0C01EA
:102430004FEA1154A4EB135CDFF81CE11EEA430FD2
:1024400018BF9EEA445F00F0748021EA045123EA39
:102450000E0343F48013DCF1200E32D322FA0CFE7B
:1024600010EB0E0023FA0CFE41EB0E01CCF1200E16
:1024700003FA0EFE10EB0E00CCF1200E51F100011C
:10248000B1F5801F32D201EB045112FA0EF2BDE811
:10249000104058BF7047401C38BF5FEA420218BF67
:1024A0007047002814BF20F0010041F100014FEAFD
:1024B000410313F5001F38BF7047A1F1C04100F080
:1024C00075B9012A43EB0302ACF1200CDCF11F0EBD
:1024D00032BF4FF0000E23FA0CF310EB030041EB78
:1024E0000451B4EB115FD0D0A1EB045101F5801180
:1024F000490801EB04515FEA30000ED350F10000AF
:1025000038BF12FA0EFE08D1BDE81040C9E7401CE2
:1025100038BF5FEA4202CAD1C3E7BDE810404FEAC4
:10252000410313F5001F38BF7047A1F1C04100F00F
:102530003DB99EEA445F08D011EA5E0FBDE8104045
:1025400004BF01F0004100207047BDE8104070B5A5
:1025500000F0DEF864FBBE3E0000E0FF4FEA4103FE
:102560004FEA5353A3F58063D3F11E03C8BFD3F1E1
:10257000210C0CDD4FF0004242EAC12242EA5052E7
:1025800032FA03FC8CEAE17CACEBE1707047102B73
:10259000C4BF0020704703F5787CBCF1FF3F04D036
:1025A0006FF0004282EA2100704770B500F0B0F889
:1025B0004992248000207047F2E7000070B5DFF8F0
:1025C00048C11CEA111E1EBF1CEA13159EEA0C0F1F
:1025D00095EA0C0F00F06F8081EA03044EEAD47E86
:1025E000AE4421EA4C1123EA4C1341F4801143F428
:1025F0008013AEF17F7EA1FB024CA0FB0365361970
:1026000055EB0C05A1FB034C4CF10003A0FB021C95
:1026100016EB0C06654153F10003094218BF46F062
:10262000010613F4007F0BD14FEA03314FEA053066
:1026300041EA155140EA165034036FF003020AE0F4
:102640004FEAC3214FEAC52041EA555140EA5650AE
:10265000F4026FF0020202EB2E4201EB025585EA12
:10266000CE710AD05FEA440C18BF24F0004450F148
:10267000000041F1000120EAD47040F2FE7C624586
:1026800000D270BDA84214BF4FF080444FF04044C8
:10269000002E08BF0024BEF1806FA8BFA1F1C04189
:1026A000BDE8704080F2828001F1C04101F000413C
:1026B0004FF0000070470CEA13159EEA0C0F18BF8C
:1026C00095EA0C0F06D081EA030E4FF000000EF0E1
:1026D000004170BD00F01CF88900013E00F007B811
:1026E00000F009B84FEA430C5FEA5C5C08D081EA6D
:1026F000030100F05BB84FEA410C5FEA5C5CF6D185
:1027000002494FF0000070470000FF070000F87F0B
:102710000EF1020E2EF0030E5EF8046B364205D465
:10272000012A43EB030515F5001F12D8012841EBE0
:10273000010C1CF5001F0CD80ED14FEAD17C0CEB1C
:102740004C0C0CF1020C15F5001F08BF4CEBD37CB0
:1027500004E04FF0080C01E04FEAD37C0CEB4C0591
:1027600026FA05F606F00706B6F1040C06D20EEBC3
:10277000860CBDE870404CF0010C6047DFE80CF0BF
:10278000090B02024FF00041A1F500214FF00000BB
:1027900070BD19461046012851EB010418BFD4F54D
:1027A000001484BF002001F0004170BD0808A0F5AE
:1027B00000114FEA3101704710B591EA030F48BF8D
:1027C00083F000433FF52AAE841A71EB030C07D265
:1027D0008CF0004C121943EB0C03001B61EB0C0155
:1027E0004FEA1154A4EB135CDFF8A4E11EEA430F97
:1027F00018BF9EEA445F00F0B48021EA045123EA46
:102800006E035242C3EB6E0338BF5B1EDCF1200E39
:1028100025D322FA0CFE10EB0E0043FA0CFE41EB1E
:102820000E01CCF1200E03FA0EFE10EB0E00CCF1DF
:10283000200E51F1000129D401EB045112FA0EF2DD
:10284000BDE8104058BF7047401C1CBFB2F1004F9C
:10285000704700280CBF491C20F00100704712EBA4
:10286000020E43EB030218BF4FF0010E4EEA420284
:10287000ACF1200CDCF11E0E56D943FA0CFE10EB25
:102880000E00CCF11E0E51F1FF31D5D50EF1010E27
:1028900012FA0EFE404141EB010101EB445C5FEA9C
:1028A0005C5C10D901EB045110EBDE7038BFBEF157
:1028B000004FBDE8104018BF704700280CBF491CEE
:1028C00020F00100704734D24FEAD42C24F4006485
:1028D00011F500111BD0B1FA81F20B3AA41AA41E13
:1028E000D2F12003914030FA03F31943904001EBF9
:1028F000CC7101EB0451002CBDE81040A8BF70471B
:1029000001F1C04101F000414FF000007047B0FA02
:1029100080F310FA03F102D1BDE810407047E41AC9
:10292000173C4805C90AE2E701EB0451BDE8104035
:10293000704749104FEA300001EB0451BDE81040E8
:1029400002E04FF0000170474A0008BF0042F8D093
:10295000B2F5001F28BF704701F000414FF00000A2
:1029600070479EEA445F07D011EA5E0FBDE8104051
:1029700004BF002100207047BDE8104070B5FFF78C
:10298000C7FE00BF40DFF63E104683F000417047AF
:102990000000E0FF43004FEAD30C4FEA3C0C4340F9
:1029A0001FBF40070CF1605113F0FE4F70471CF041
:1029B000006F03D10CF00041002070470CF0004381
:1029C00043EA507040EACC0010B500F022F800BF96
:1029D000000000924FEA0001FFF7E8BE4FF000410F
:1029E000A1F500214FF0000070470000B0FA80F31D
:1029F00010FA03F2C3F19D030AD0D90501EB1220AE
:102A0000530638BF704700F1010008BF20F00100F5
:102A100070470EF1020E2EF0030E5EF8044B2442B6
:102A200004D44FEA4102B2F17F4F11D84FEA40037C
:102A3000B3F17F4F0CD80ED14FEAD07C0CEB4C0C8D
:102A40000CF1020CB2F17F4F08BF4CEBD17C04E0DB
:102A50004FF0080C01E04FEAD17C0CEB4C0324FA58
:102A600003F404F00704B4F1040C06D20EEB840C5A
:102A7000BDE810404CF0010C6047DFE80CF007089F
:102A800002024FF00040A0F5800010BD0846420051
:102A900018BFD2F1807288BF00F0004010BD010263
:102AA00000000000000000000102030406070809FE
:102AB00002030405060708090A0B0C0D0E0F10107F
:102AC000E02A00080000002018000000280100088B
:102AD000F82A000818000020B00700004401000890
:102AE000080064000A00000001000000100000005F
:082AF0000024F40000000000C6
:04000005080000ED02
:00000001FF
